:20000000004000204DCE000001C9011001C9011001C9011001C9011001C9011001C9011043
:1C00200001C9011001C9011001C9011001C9011001C9011001C901103FC9011089
:20003C002DE9F04FD44C04F118012046ADF1340D0CF0E2FD00264FF6FF706670012120828D
:20005C0004F1A4000DF088FD022104F1C8000DF083FD042104F1EC000DF07EFD4FF0040A41
:20007C0004F1440810224046314684F802A00AF00FFF04F154091022484631460AF008FF44
:20009C0004F11C073E6004F10A052E70E671267207206072CDF80080DFF8F882022210201A
:2000BC000346414605F0C2FF102003224146CDF80090034605F0BAFF102052464146009790
:2000DC00134605F0B3FF4FF0080B4FF0030905F12A00079005F17900089005F11E000990FC
:2000FC0005F15A000A9024350B9517E06078A28FE18FB4F84050B4F8423006280ED1ADF885
:20011C000A20ADF80C10ADF80E50B948ADF810300FF0C6FB012002A90AF03AFBA069B34A2E
:20013C0031464FF0FF3300F029FA071CF6D0059606A80DF11A0105AA0DF012FE002840F049
:20015C00BD81BDF818102078102940F0B3819DF81A10884240F0AE81059D29884FF6FF7242
:20017C008A4200F09C812B78A23B00F07F812E3B40F0A081A978B046002900F03B81891ECD
:20019C0000F00A81491E012940F2D980891E00F09C80491E6FD0491E5CD0083900F05681B8
:2001BC00891E40F0598194F83A30A888052BADF8080047D001208DF812008D480FF070FB61
:2001DC0094F83A0001281ED004281CD003280DD002280BD00598C188ADF80A100189ADF82D
:2001FC000C104189ADF80E10818927E0A08FE58FADF80A00B4F84030ADF80C50B4F84210BC
:20021C00ADF80E301AE0A08FE9888842D8BF081CADF80A002989E08F8842D8BF081CADF8C6
:20023C000C006989B4F840008842D8BF081CADF80E00A989B4F84200884200DC0846ADF8C7
:20025C00100001E08DF81260A849102002AA05F0EDFE01E1A6480FF023FB6B78002B40F0C2
:20027C00FB80E88860822889A0826889E08260480FF024F9F0E0AA88B449102005F0D6FEB3
:20029C000798414606220AF003FE6682A682E682A879207356480FF003FB95480FF000FB5B
:2002BC004FF001084FF6FF702379208253B9A879082812BF84F801A00520607040460FF023
:2002DC002DF9C9E084F80190C6E06B787BBB291D07980A68026089888180062363706889AF
:2002FC002082E8896082288AA082688AE082E878E07294F83A00012818BF02280BD1994965
:20031C0010201F2205F092FE4FF47A7180B2414337480DF051FA688900909149CDF804A05C
:20033C00EA7810202D1D2B4605F080FE97E06878312840F08880E67084F801A08FE06B7834
:20035C00002B40F08080A878E3896178032815D0E078257923B9012814BF2671E67006E010
:20037C00054304D0804819460DF026FA61780729E2D10620607072E0300E0020062907D099
:20039C00E578002D08BF84F8019068D00220F1E70720EFE705ED00006B78002B53D1EB782D
:2003BC00617893B902291DD007291BD0062902D12079012816D1032914D06B480FF07EF8E6
:2003DC0080B901200FF0AAF80CE00DF01DFF0246A07962490090089843460190102005F086
:2003FC0025FE68706D78002D2DD135E007000080F80E00206B7833BB5C485749009002224B
:20041C001020034605F012FE59484A46524900901020034605F00AFEED1C099829680160D4
:20043C00A98801238180207863700DF0EDFE024601230A9D6079494900901020019505F02E
:20045C00F5FDC0B258B184F801B008E0AA8841491020052305F0EAFDB8F1010F2AD1256ACB
:20047C0045B32D6835B36078A84723E06879132820D12889012808D1607B022805D11C4822
:20049C000FF00EFA0DF09EFC14E036491020052205F0CCFD81B216480DF08EF90AE068882B
:2004BC00C00B07D3334852462B4900901346102005F0BCFD059808B10FF0A4F92579E07845
:2004DC00790830D355EA00032DD0204600788DB9E179257A8DF808100B9A8DF80950136885
:2004FC000DF10A052B609288AA8005E0051601101C0F00208DF80890617A8DF81010A17AF0
:20051C008DF811100DF080FE1149024602AB102005F08CFD38B1256A84F801B01DB12D6899
:20053C000DB15846A847B80803D3134930460AF02FF9F808FFF4F2AD607B401E3FF4D6AD49
:20055C00401E7FF4EBAD0DF03DFCE7E58DC7000059440110C11701103D7A00000945011013
:20057C00057E0000A9F00000D40E0020740E0020840E00204C0E00206A0E0020DFF800F014
:20059C00F99B01102DE9F04F0F46CD4C0168E16241688068ADF11C0DE060C548A1608047BE
:2005BC00C448E16A0160A168DFF810A34160E168DFF804938160CE49002FA346C1606FD00C
:2005DC003D68E8788DF80C0028798DF80D0003A800F016FAA86808B1C6490160E86808B149
:2005FC00C5490160C54C287820706878BE686070A878B268A0703178A2607368E1702E69A1
:20061C006360EA6926627968E2620868E06068696062A8697B68A062286A9E68206395F81A
:20063C00240084F834001EB900200EF023FC00E066617868C06818B900200EF01BFC00E021
:20065C00A0617868006918B900200EF013FC00E0E0617868406818B900200EF00BFC00E0B7
:20067C00206128692062F86881680E6806B9D24ED0494FF001084E60C66881F8018036B906
:20069C0000200EF0F7FB4D462E68F86801E04D462E6000685446FB68A0615868E06107E055
:2006BC0000200EF0E7FB4D462E684FF001085446361DC749366804F1080350205246B04713
:2006DC0010B1286880688047DBF808008047C24E002781463B46BF48777069466061042259
:2006FC00337038460DF086FB0098B0F5801F0CD020B90DF0BDFE06F07FFF08E00CF0FEFBA5
:20071C000EF024FE0420708001E00DF0B1FE3846BA4EE0602B68B760986980477060AF48FD
:20073C0080F800803946418014200EF0FFFEFF211422A0620FF0BCF8E01CFF2102220FF0EC
:20075C00B7F814200EF0F2FEA54F38603868002114220FF0ADF8002000F06AF940460CF090
:20077C00CBFEA0480188FF2906D1022101807822001D00210FF09CF8032000F045F90420A0
:20079C0000F046F9052000F047F9062000F048F907200BF08BFC944E0820307006F12400F4
:2007BC0000F042F90BF06CFE06F1360A05200A2152460EF099FA38B10020C0F10901401CBD
:2007DC000AF8011B0A28F8DB3078102108F028FA2B68864909200DF10E025E68087001AB64
:2007FC0010200021B047A06AE1690A260A309DF80E20761E00F8012BF9D1891EE161DBF8D6
:20081C000C104846884704F120002B68626A059040461E69DFF8D88104F120034146B04767
:20083C0010B1286880688047B8460DF057FF5FEA000903D009F05CF84FF0FF39002643E019
:20085C000298616910F8062CA0F10C07032A03D1002939D0884737E0A16A9DF810C00A2285
:20087C003046491E11F8013F9C4506D0521E00F10100F7D14FF0FF0A01E05FFA80FA2868C9
:20089C00BAF1FF0F00F108001CD038790DF03CF8B979012904D0022904BF0299887001E02A
:2008BC0002990870029950460EF064F90CE0C04641490010F8440020881F0020A81D0020E9
:2008DC0094180020006880472868C36904A902AA0DF10F0098470028B2D0D8F8000077000F
:2008FC00C35B6BB9761CF6B20A2EF8DB2BE0C04628FF000059E3000079F00000781C0020C4
:20091C000A2E20DADBF808008047D8F80010002231F807A0CA53DBF80C108847354850F875
:20093C00262066705146304690470646FF206070DBF808008047D8F800107A5A16437E52E1
:20095C00DBF80C1088470DF0C9FE0746B9451AD007B9294FE069B84238BF071CDBF8080054
:20097C00804781462868016A206A8847626A28681F49059B521C6262C6683846B047DBF86D
:20099C000C1048468847E7682968A0681431AFB9D8F800000A270026835B33B10969A068CA
:2009BC0088472968D8F8000014317F1E06F10206F2D107E0EC1E002063B5000009698847DD
:2009DC002968143109684FF0FF3088472DE7C046B9E80000F1F000002C0E00207C1F0020C6
:2009FC00B4290020B4190020F8140020C62900205DD900004C0D01008EC2F528642900200C
:200A1C00DFF800F0B9920110DFF800F0C9790110DFF800F059880110DFF800F0D97501109E
:200A3C00DFF800F07D810110DFF800F0518B01102DE9F84FDFF8BC13DFF8BC23DFF8BC5371
:200A5C0008700821002010600D23DFF8B4034FF44D72017043808280DFF8A8030560AC7E42
:200A7C00DFF8A4030470FF2CE97E417008BFFF292A7F82706B7FC370AE7F0671ED7F4571B8
:200A9C0015D1FF2A08BFFF2B11D1FF2E08BFFF2D0DD1DFF878130A7802704B7843708A788C
:200ABC008270CB78C3700A79027149794171DFF860130278DFF85C83DFF85C93DFF85C7362
:200ADC000A70FF2543784B7082788A70C378CB7002790A714079487188F8005088F8015073
:200AFC0088F8025088F8035088F8045088F805500020CB490880D9F83440CA496078087028
:200B1C002278C9493A70A0780870A2681079C74A411E1170E078C649C64A0870E0681060A8
:200B3C0008B90EF0A7F92069C34E306008B90EF0A1F93068DFF804A301688847326852F885
:200B5C00041F50468847BE48BE49CAF82000CAF824106069BC49086008B90EF08BF9A0698A
:200B7C00BA49086008B90EF085F9E069B849086008B90EF07FF9DFF8DCB2B74C9BF80400C9
:200B9C000EF0D4FC0028206075D09BF80500B34E0EF0CCFC002830606DD09BF80600DFF8BA
:200BBC00C0A20EF0C3FC0028CAF8000063D09BF807000EF0BBFCAB49002808605BD039782E
:200BDC009BF80000891C484380B20EF0AFFCA649002888604FD03878002862D0BBF802106E
:200BFC00484380B20EF0A2FCA04A0028506042D038780EF09BFC9E49002808603BD0387835
:200C1C0040000EF093FC9B490028086033D03878182148430EF08AFC974A106058B3387870
:200C3C0040010EF083FC9549086020B3387800010EF07CFC92490860E8B1387800010EF00F
:200C5C0075FC90490860B0B13878302148430EF06DFC8D4A106070B18C4839780078484382
:200C7C000EF064FC8A4A106028B138780EF05EFC8849086018B9BDE8F14F07F03DB84FF0BB
:200C9C00000B09E00EF022FC0021418081600180022303710BF1010B39785FFA8BF08842F4
:200CBC00F0D32268694F0120107121680D732068457321688D732068C57321680D740021B4
:200CDC002068457400202268D172A0222168487103212068C28001720720226850720021D1
:200CFC00206881722821206801224182C2760020216848770022206880F85E2001212268BA
:200D1C0011770120216881F85D0001223068027131680D733068457331688D733068C573AF
:200D3C0031680D7400213068457400203268D172002231684871306882724FF420703168A2
:200D5C00C88008818A7401213368D974DAF800201573DAF800104D73DAF800209573DAF8B6
:200D7C000010CD73DAF8002015740022DAF800104D740121DAF80030DA720023DAF8002042
:200D9C001171DAF800104B71DAF80010C88008818B720520DAF800209374DAF800103E4ADF
:200DBC00C874106880473968054608688047396851F8042F00209047D9F80C101C4B0A887F
:200DDC001878364902430A802846354A136898470C21344800F068F8404600F069F800F012
:200DFC006BF8BDE8F44F034800784FF4005107F017BF00BF6E4F0020044F0020B63F005014
:200E1C00604E0020084F00202C4E0020E81200503C4E0020344E0020A01001007B4F0020A6
:200E3C000C4F00206D4F00206B4F0020724F00206C4F0020F04E0020F44E00207C4B002002
:200E5C0049F5000069F50000F84E0020FC4E002064280020C81E0020104F0020144F002056
:200E7C00184F00201C4F002070290020684E0020004F00209C290020804E0020844E002081
:200E9C00884E00208C4E0020904E0020A41F0020A0290020A42900209C180020544F0020F8
:200EBC00A0180020F84D0020DFF800F0E5710110DFF800F01D6E0110DFF800F04D710110B2
:200EDC002DE9F04F0C4645498A7AADF12C0D84460592087B0990CD7800954A7AC88ACB8925
:200EFC00CE7A91F804A091F801800492B1F842E008900A7A888A03928D780790CA79488A82
:200F1C000292CF6906908A79088A01924A79E146A9F54079B9F11D0F10D8DFE809F05B55BC
:200F3C0053514F4D4B494643413F3C3A380F3432302D2B2522201E0F1B1A1918BCF12D0F2A
:200F5C0049DA27496246102005F070F81FE0099EB246D046CDF814801BE0089807900798CF
:200F7C000690DDF818E005E03431086820608888A08030E0704608E0B1F8400007E0C88FB3
:200F9C0003E0888F01E091F83A00034612E0208021E0059804900498039001E02E31E4E750
:200FBC00039802900298009006E0019A83310DE064310BE01846EAE7009D0BE02831D4E751
:200FDC00276008E0543100E044311022204608F019FE00E025700BB0BDE8F08F300E002053
:040FFC00A9F0000058
:20100000B41200001810000015AB0110FDB301106DC00110FDAE011099B5011000000000F7
:08102000000000002D0000009B
:20102800B01200003C100000B1C00110A9BF011067C0011069B80110000000000000000035
:041048003000000074
:20104C00B012000060100000BDC00110CDB30110D9BD01106DB3011000000000000000005B
:04106C00310000004F
:20107000000000000C1F002004000000000000000000000020000000E8C9011030000000FF
:2010900028100000141F00200400000000000000000000000C000000D8CA011018000000DA
:2010B0004C1000001C1F002004000000000000000000000024000000F0CA0110180000005E
:2010D00000000000241F00200400000000000000000000001000000018CA01102C0000006A
:2010F00000100000341F0020040000000000000000000000200000006CCA011024000000CE
:20111000FFFFFFFF3C1F00200400000000000000000000002800000090CA0110240000008D
:20113000FFFFFFFF441F00200400000000000000000000001400000008CB0110180000000C
:20115000FFFFFFFF4C1F002004000000000000000000000058000000B4C9011034000000DA
:20117000FFFFFFFF541F00200400000000000000000000001000000020CB011018000000A8
:20119000FFFFFFFF5C1F00200400000000000000000000001C000000B4CA011024000000D5
:2011B000FFFFFFFF641F00200400000000000000000000003800000044CA011028000000FD
:2011D000FFFFFFFF6C1F00200400000000000000000000005400000078C901103C00000072
:0811F000020000003C100100A8
:0411F80001000000F2
:0411FC0000000E00E1
:0412000000000F00DB
:0412040032000000B4
:0412080001000000E1
:04120C00601E002040
:0412100000020000D8
:0412140000000000D6
:0412180001C90110F7
:04121C0000000000CE
:0412200000000000CA
:0412240008000000BE
:0412280000002200A0
:04122C00B01C0020D2
:0412300000000000BA
:0412340000000000B6
:0412380008000000AA
:04123C00201E002050
:0412400000000000AA
:0412440000000000A6
:04124800080000009A
:04124C00000000009E
:04125000000000009A
:041254000000000096
:041258000000000092
:04125C00010000008D
:04126000481D002005
:041264000600000080
:041268000100000081
:04126C00AC1B002097
:04127000000000007A
:041274000000000076
:041278000002000070
:04127C00000000006E
:02128000290043
:02128200010069
:02128400250043
:02128600300036
:02128800310033
:02128A002D0035
:02128C0001005F
:01128E00015E
:0812900003000000F00F010053
:0812980000000000000000004E
:0412A0000000010049
:0412A4000000030043
:0412A80013C401105A
:0412AC005FF20000ED
:0412B000B812000070
:0412B400B81200006C
:0412B8000000000032
:0412BC00D41E00201C
:0412C00027F400000F
:0412C4002000000006
:0412C800180F0100FA
:0412CC00C40D01004C
:0412D00029C101101F
:0412D400AFDD00008A
:0412D80097E7000094
:0412DC00A1C7011095
:0412E000A3C701108F
:0412E4000000000006
:0412E800130E0100E0
:0412EC00140B0100DE
:0412F0002C0B0100C2
:0412F400FC0A0100EF
:0212F8000200F2
:0212FA000900E9
:0212FC000100EF
:0212FE000000EE
:0113000001EB
:0413040091F3000061
:04130800CDD900003B
:04130C0025E90000CF
:0413100015DD0000E7
:0413140005DA0000F6
:0413180035CD0000CF
:04131C00E9A4000040
:041320006DF6000066
:0413240025C10000DF
:0413280015C70110D4
:04132C0025C70110C0
:201330002DE9F047AC4C04F10C012046ADF5C47D0BF068FC002504F14C06304629462562D6
:201350000EF0E6FD04F1640004F1A001266108F035FAE06108B90EF0D7FD04F1580004F1E9
:20137000700108F02BFAA06110B90EF0CDFDA069DB490EF092F908B10EF0C6FD08A82946EE
:20139000242208230EF0BCFDD74F4FF47A7832260D20DFF8509339680E9008AB04F1EC00A8
:2013B000B8FBF1F18AB2724349460EF0A5FD0E2039680E90324608AB04F58870B8FBF1F14A
:2013D00089B24A4349460EF097FD0126ADF8485040F205300DF5C1728DF88261314601F044
:2013F000F3FC40F20630022112AA01F0EDFC621C4FF44270314601F0E7FC04F18C0240F25A
:201410000730142101F0E0FCB84F10200622A023394604F011FE10200722A023394604F050
:201430000BFE394610200822A02304F005FE394610200922A02304F0FFFD3946102032464C
:201450001E2304F0F9FDB146119511A80090A8468DF883914FF481628DF8849104238DF878
:201470008581A34D8DF886911020294604F0E4FD0DF283104FF480623346009029461020F7
:2014900004F0DAFD61A840F20242334600902946102004F0D1FD0DF2851040F20342334604
:2014B00000902946102004F0C7FD0DF5C3700090294640F206423346102004F0BDFD8D495A
:2014D00010204FF0FF3204F0B7FD8B4910204FF0FF3204F0B1FD1025884F8948894A009559
:2014F000132339460190284604F0A6FD04F1B4004246152384490090284604F09DFD0DF5CD
:20151000A7704146282209F0C9FC8048007880000EF0B8F97E4E0146716071B14FF6FF70EC
:201530000CF084FA7B49284632460A23009002F58A720191394604F07FFD0DF14A00414677
:20155000642209F0ABFC404664210DF14A020AF0AFF90DF1AE004146642209F09FFC484683
:2015700064210DF1AE020AF0A3F90DF5897041463C2209F093FC02203C210DF589720AF0B4
:2015900097F90DF5BB704146052209F087FC032005210DF5BB720AF08BF9AA465E4D5F481C
:2015B000CDF800A03946032305F108020190504604F042FD04F1440041464A4668600DF59D
:2015D000BF7009F06BFC0DF5BF7000782870544D6F782878C7B901E00802002004F1300152
:2015F00029620CF017FE05F15407CDF80080024605F14400019005F11C06029749490396BA
:20161000AB78504604F018FD474904F13C02504604F012FD20780CF0FDFD444902465046A3
:2016300004F00AFD20780CF0F5FD41490246504604F002FD06A80DF0C1FE22278DF81E90D8
:2016500004208DF8180006A9ADF81A70062006F0D3FF384960620EF0C1F8606A3649082280
:201670000BF07CF9606A0BF09FF9E069062142460CF054F8E069072142460CF04FF8E069C8
:2016900015214A460CF04AF8E06916214A460CF045F8454600954A46019206A0029540F23B
:2016B000D121039507A3049507F040FF62B0BDE8F087C04670726F6A6563745F7A65726FCD
:2016D0002E6300C056657273696F6E3A253032642E253032642E253032640D0A00C046C08F
:2016F00085E30000BDAB00007410010045DC0000A140000029E80000D1EA0000DDE30000F7
:20171000D80F0100141200203DA90000694F002044130020640A0100401C00207C0E0100E0
:20173000300E00206BD0000041ED0000518801103181011010272F00598400002DE9F04F8D
:20175000ADF12C0DFFF7ECFDBC48C24C64300990BA484FF00008C346C8300A90E068C24A4C
:2017700041464FF0FF33FEF70FFF0028F6D0584605900DF1220105AA06A80CF0F7FA0028AA
:2017900039D1BDF8186001200746102E2ED120789DF82210884229D1059D28884FF6FF712D
:2017B000814223D02878B0281ED16878676B162815D15FB94FF6FD70B049B14A009043464F
:2017D000102004F039FC676BC6B246B947F00107012067630CF060FD6561404605E0297901
:2017F00005F108000EF084FB01200746059810B10FB10EF00DF820690EF076FB0028ADD131
:2018100020690EF06DFB0646307A06F10905002800F0B280801E52D0401E00F02781401E70
:201830003BD0401E00F01881401E00F00981401E03D0093800F0FC801BE1606B4008C0F031
:2018500018816769002F00F01481A07807F10805401CA070B34900957A883B79102004F067
:20187000EBFB5FFA80F9B9F1160F00F00281676BB9F1040F00F0FD8037F00107676308D190
:201890004FF6FD707D497E4A00900123102004F0D3FB48460CF000FDEBE0777A06F109050A
:2018B0000D3F09D07F1E40F0E480012001466D1C2A4603F035F9DCE040460121F7E72F8847
:2018D00041F210103F1A02D0103F51D0D1E06F8805F105092D79EDB16B1E0CD00095584682
:2018F0005F465D4601905A4602974FF48B7103956CA3049237E065A08B4D00905B465A4685
:2019100001974FF4897102932D1D0392A5F1030A04930DE05BA0844D00905B465A46019712
:201930004FF485710293AA460392AD1CCDF8108058A0012265A307F0F9FD022F07DA37B11C
:20195000504649463A4608F063F92F8091E0009701200190074602974FF49171CDF80C8099
:2019700061A3CDF810B04BA0032207F0DFFD80E0287969886D1D9BE72F8841F210103F1A8A
:2019900043D0303F75D12F79002F72D16F79E0697F1E30D07F1E07D0152101220BF0BEFE03
:2019B000E069162101223DE0152101220BF0B6FEE069162142460BF0B1FE0A202072607A07
:2019D0001E4A401CC0B2607264218DF81A00404609F06EFF099A0120642109F069FF0A9A91
:2019F0000220382109F064FF03200DF11A02012109F05EFF3DE0152142460BF08FFEE0699F
:201A1000162101220BF08AFED9E7A978474A681D0AF01EF82B79E0696F1D33B15B1E28D103
:201A30006A7907210BF07AFE23E03A780621F9E70820414601F04EFC1BE0C04654040020F9
:201A5000CDF800B03649B6F809201020434604F0F3FA0EE008020020B07A8DF81E00707A42
:201A70000DF11E02C3E7C0460F0000C0707A09F0D3F930460CF00EF8BDE6C046EDC3000039
:201A9000DBF100004C45443000C046C04C45443100C046C06C65645F736572766963652E20
:201AB0006300C046536574506172616D657465723A20506172616D657465722023256420F9
:201AD0006E6F742076616C69642E00C0536574506172616D65746572203A202573206C65B7
:201AF0006E3A20256400C0464C656E677468206F75747369646520626F756E64733A204CAF
:201B1000656E3A202564204D696E4C656E3A202564204D61784C656E3A2025642E00C0463D
:201B3000B1DD0000DDFE0010A01A0020840200202DE9F84FD74CA178FF2904BF00200DF0FB
:201B50009FF9A0780DF0E0FB044604F1680504F190062968086810B10021E1830CE0A87B60
:201B7000002804BFA97E002906D13078002801BF207F0128608CE0832189E08B4118491CC9
:201B9000618120460EF0A8F901281EBFC2480178012904D121890020491CE08361814FF60D
:201BB000FF77A87E01280DD1AA8B618920890EF08FF938B1218960894A1C93B298421BD038
:201BD000A88B0FE03078012816D17288618920890EF07EF980B1218960894A1C93B29842D0
:201BF0000AD0708892B2904206D03818608180B20EF06AF93F18E78304F5967999F80400F5
:201C100020B120890021401CE183608104F12E07A87E01283ED12289A88B521C92B290428E
:201C300038D1608104F1860120460EF049F9A88C608400212177E183E08961894118A18185
:201C5000A88B21890EF040F98046B988288C6A8C01FB0808E88C8A4204BF3989884202BF53
:201C7000AB8CF9888B4207D000090090AB8CA179520800200EF020F9A87F3870698CB98080
:201C9000A88CF8802046E98C39810EF011F90220A87601E0B7F80480B4F81EC022687F4EB6
:201CB000D2F80CE00CF1010000FB08F340F6C41000FB03F18E44C2F80CE03668DFF8E0E1C3
:201CD0003678BEF80080774AB609032E11D1D67BF60748BF4FF000080BD408F101081FFAE7
:201CF00088F6012E12BF668AB9F8066006F2DC5600E0668A5E434FF4C87AB6FBFAF6761CFC
:201D10006661AEF80080A3614FF0180894F806A084F820C008FB0AFADFF88CC1DCF800E0F6
:201D300023680EF1080656F80AB0C3F810B094F806A008FB0AFACDF800A0D3F80CB0D4F887
:201D500014A0ABEB0A0ADDF800B046F80BA094F806A008FB0AFA56F80A609E600EF10C06A7
:201D7000A37908FB03F30EF10C0EF65C06F0F00646F002060EF803604FF0000ADCF800E043
:201D9000A6790EF1020308FB06F623F806A0474BA6791B68760103F1140AD4F814B05AF8B1
:201DB00006A00AEB4B0A03F1140B4BF806A0AD7E022D0BD1A5796D0103F1140697F800B018
:201DD00056F805A000FB0BAA46F805A0BD88D27BA779D60737D508FB07F70EF10802D65999
:201DF000A6F5A86A0EF1080646F807A0A77908FB07F7D2592768511A3961BA6003F1140230
:201E1000A1794901575807F5F667575003F11401A27952018958C9F800106843244A156BDD
:201E3000A779296803F11C067F01401AA0F51670F0512049A07903EB40100B78012B14D141
:201E50000121C17214E003F114027F01D1592A464243A1F5E661A2F516729142DDD30821D8
:201E700020460EF021F8012011E0916A4A78C272A179DCF8000008FB01F28118226851601A
:201E900007200D490870204609F07EF80020BDE8F28F00BF684E0020784F0020084F00202F
:201EB000BC2900205C4D0020804E0020844E0020A0100100734F00206F4F00202DE9F84F96
:201ED0000C46E00788B00BD50DF016FB28B100218160B348006800B1804784F001005CE12B
:201EF000A0070FD500210023069105910491039302910191009101223C200DF0D1FF84F035
:201F100002004AE11D256007A64EA74F40F18A80002107918B46A5488178FF2904BF00203B
:201F30000CF0AEFF386890F8A0000DF0EDF980463868C07A98F82691022818BF032808F52D
:201F5000907A06D106F10D000DF0A6FF08B906F1070B514648460DF09BFF88B33868807A8F
:201F7000002818BF012804D1314650460DF08CFF04E05246494630460DF082FFFF2834D095
:201F900005FB00F906EB090506225146E81D0DF0BFF816F80900396840F00209E81D079032
:201FB0000622887E00F0010088F8260105F1010A386800F1140108F590700DF0A9F814E015
:201FD000514648460DF058FF78B15246494630460DF056FFFF2808D006F10D014543481973
:201FF0000DF05AFF08B949F0020908F12C004B46017806914289120905920122B8F822102E
:202010000491C0880799029140080390CDF804B0CDF800A0002098F806100DF041FF84F070
:202030000400BAE020060FD500210023069105910491039302910191009101223B200DF01B
:202050002FFF84F08000A8E0E0044BD5F11D06F10D000DF00DFF3868017A012918BF04295E
:2020700031D1C17A02291EBF0329817E01292AD1817E00F1140230460DF002FFFF2811D039
:202090004543354405F10D000DF006FF50B9E91D05F10D000DF0ECFE38680622E91D14301F
:2020B0000DF036F83868C07A022818BF03280AD106F10D000DF0F0FE28B938680622F11D5E
:2020D0000C300DF025F83A4842683A4800784FF480510AF03BFF10B18E2008F0A5FD84F4AB
:2020F00080505AE0A00505D50DF0C5FA324901200860FEE7600504D505F0F9F984F4806025
:202110004BE0600405D5812008F08EFD84F4804043E0A10440D5294D286810B100200CF02A
:20213000AFFE274E4FF0FF3028600DF09DFE3168244D51F8202F684690472349234B486A2C
:202150008A6A009001920293C86A0268086A0392ADF810000A6B1178002904BF50680028A1
:2021700005D19068002804BFD068002806D02970506868609168A960D068E86029463568B9
:20219000134A2E6813486B46B0471349086004F01BF884F4005000E0002009B0BDE8F08FC9
:2021B000204F0020AC450020104F0020684E0020784E00206E4F0020FC002043044F002085
:2021D000F04E002068450020781C0020F9F400002C4D002068280020EC4E00202DE9F04F2B
:2021F00009AFADF13C0D08900A92388809911E46ADF81800101C08BF002000F0758101780F
:2022100000274FF0010B401C4FF0FF39B846DA460A9061E1252940F056810178401C0A90AB
:202230002D2918BFADF8068004D10178ADF806B0401C0A9030291CBF4246434604D1017804
:20225000401C5A465B460A902A29CDF800804D4617D1049330680A9BCDF80890C01C20F007
:202270000300001D306050F8044C1978002C009403F101000A9018D5ADF806A064420094B4
:2022900013E044460AE0600000EBC4004018A0F130040A9801780094401C0A90302901DBC1
:2022B0003A29F0DBCDF8089004932E2929D10178401C2A290A9011D13168CDF80880C91C2C
:2022D00021F00301091D316051F8045C002D48BF454601782B46401C0A9011E045464346D5
:2022F0000AE0680000EBC5004018A0F130050A9801782B46401C0A90302901DB3A29F0DBC9
:2023100002930AB1224604926C2904D04C2918BFADF8048004D10178ADF804A0401C0A90F4
:202330000BA8CDF80C800FAB07906429059300F0828069297FD0BDF818C075296DD0782937
:2023500069D06F2965D070294ED063293ED0732922D00A98401E0A90099801281AD9664982
:202370000C68B5F1FF3F03D0A84288BF6D1C05D86FF00041814294BF0D1C099D029508A8BF
:202390000AA932466B46A04709993F18091A0398099165E0454617E03068C01C20F00300CB
:2023B000001D306050F8040CBCF1010F014608B94FA0014607910CF0D9FF0390B5F1FF3F2A
:2023D0004FD0A8424DD9039528464AE03068C01C20F00300001D306010F8040C8DF82C0091
:2023F0005D46039558463CE0082035680490E81C20F00300001D306050F8041C08221023F6
:202410000FA809F06FF8401E079040210170079823E0082302E0102300E00A233068C01C6B
:2024300020F00300001D306050F8041CAA42BCBF2A1C04920DE03068C01C20F00300001D90
:20245000306050F8041CAA42BCBF2A1C04926FF009030FA809F046F807900599081A0390EE
:20247000009C241ABDF8065000945DB906E008A8202109AA0CF06FF87F1C009C641E009483
:20249000F5D50398401EB0F1FF3F03900FD1BDF8060001281CD10098401E009018D408A824
:2024B000202109AA0CF057F800987F1CF4E70798017809AA08A80CF04EF80798401C079070
:2024D00003987F1CDEE708A809AA0CF044F87F1C0A980178401C0A9000297FF49BAE089825
:2024F00008B14146017038460FB0BDE8F08FC046286E756C6C2900C080100100BB482DE93E
:20251000F84F0025BA4CB849056094F8E200002800F06581012800F02F81B64E02283CD064
:20253000032840F05C8151F8250CD4F8B8100029A0F5C060C4F8D400B8BF49420028B8BF36
:202550004042814226DA4FF08057D7F8A4014568B4F8BC0030214FF47F4208230090304601
:20257000A847D7F8A4014568B4F8C00004214FF4F802122300903046A847D7F8A401B4F823
:20259000D070456820214FF440620A2330460097A847012584F8D8501CE151F8258C0DF031
:2025B0006AF82F4600B901273946934F38680028FCD0B146012609F10409D9F82CA03E60FE
:2025D00009B10DF05EF8CAF30720C4F8BC000DF052F8AA4600B9B2463B68002BFCD0D9F82F
:2025F00000B0BAF1000F3E6001D00DF04AF8CBF38440C4F8C0000DF03EF8AA4600B9B246E1
:202610003B68002BFCD0D9F81C90BAF1000F3E6001D00DF036F8C9F38120C4F8D000B8F5A9
:20263000C061C4F8B81000F09C8094F8D80068B9C4F8D410D4F8C000C4F8C800D4F8BC70AC
:20265000C4F8C470D4F8D030C4F8CC30D4F8D400D4F8BC30002854BF02226FF0010204F1E8
:20267000C8010F6800EB40008018421000EB927207EBA2000860D4F8C810C4F8C43000298D
:202690001CDD1E293CDDD4F8CC0030B93429B4BF15391E21C4F8C81025E02A29BABFD4F8C2
:2026B000C8000B381E20C4F8C800D4F8C4003F28B4BF401C3F20C4F8C4001FE0D4F8CC0001
:2026D000032812D011F10B0FC6BFD4F8C8000B30301CC4F8C800D4F8C4000028C4BF401E04
:2026F000051CC4F8C450032508E011F1150FC6BFD4F8C8001530301CC4F8C800C4F8CC509D
:202710004FF08057D7F8A401B4F8C43030214FF47F424568374800930823A847D7F8A401DD
:2027300004214FF400321123456832480096A847B4F8C860D7F8A40104214FF4F802122330
:2027500045682C480096A847D7F8A40120214FF440620A23B4F8CC60456826480096A84784
:2027700001E084F8D85040F2FF50404502D8801C40452FD2082030E051F8251C1F4F4BF255
:20279000F5204843060A3868C0F3814001280CD11B480068006880470AF01EFE0CF077FFDD
:2027B0003111C010484306EBE03694F8E50030B91448006820F07F403618760801E084F84F
:2027D000E5501148310C0660012741600F4D8760287808B90B2000E0052084F8E40003F0C8
:2027F0009BFABDE8F88FC0462D400C402C500C408017002000A00C4000800C40B43F0050CF
:20281000EC010010102009403C600C40FD0E01002DE9F84FB34D696884B0019121B905B0BB
:20283000BDE8F04F0DF01CBB0978DFF8BC82AF4EDFF8BC92DFF8BCA201291CBF0229042986
:2028500046F2A81741F64C5B05D0402918BF802900F096803CE10CF04BFF0028FAD00198E1
:20287000007804F003FC0090446814B900200CF007FB9AF8010000285CD000F093FF0CF051
:2028900043FD02900168009801914F6808F070FF022825D000990A78012ADBD196490A6843
:2028B000137A19F80310317018B90DF0D5FA5844A0602069C17E01F0EF01C1762069C17ED5
:2028D00041F08001C1762069C17E01F0F00141F00201C1762269B96888484118D1614BE0B8
:2028F00001980178802911D10820854930700A78012A03D09AF80100022801DB38690CE0EF
:20291000D8F828003A690178D1720DE07C49072030700A783869012A02D10121C17203E07E
:20293000D8F828104A78C2720298817901988AF80210C8E0009800288CD00199009A007858
:20295000914205D101281CBF00200CF099FA15E0012840F0BD80684801680A7A19F80200D0
:2029700030700DF079FA3918A0680DF071FA18B90DF072FA5844A0600120A8700098A2E04D
:202990009AF8010000287AD000F00CFF0CF0BCFC04462068029047689AF802000CF0B4FC20
:2029B00003900CF0ABFE10F0070F3DD0A87804F05DFB0190416801980091029908F0D8FE73
:2029D000022831D001990A78012A2AD14A490A68137A19F80310317028B90DF03DFA834447
:2029F0000098C0F808B000980069C17E01F0EF01C17600980069C17E41F08001C1760098A6
:202A10000069C17E01F0F00141F00201C176009AB9683A4841181069C16101210198A970AC
:202A300051E000200CF02CFA0398A04225D0029833490278802A12D1082030700978012911
:202A500003D09AF80100022803DB38690121C17210E0D8F828003A690178D1720AE00720AA
:202A700030700978386901290EBF0122D8F828104A78C272A0798AF80200029823E00CF036
:202A90003DFE10F0070F29D0A87804F0EFFA04462078D4F80480012820D117490868027A47
:202AB00019F8021031700DF0D7F93918D8F808000DF0CEF920B90DF0CFF95844C8F8080086
:202AD0000120A870204605B0BDE8F04F06F06CB905B0BDE8F04F00200CF0D2B905B0BDE8F9
:202AF000F08F00BF70290020A01001006F4F0020289A0110684E0020104F0020F0D8FFFF52
:202B1000734F00202DE9F84FDFF8B8A20F460446F80B80F00B81A64EDFF88882B80F80F08B
:202B3000BC80B80880F0B0803809C0F0318108200CF0C6FD002840F0A28080200CF0C0FD8C
:202B5000002840F09C80684606F078FF012803D10098002800F0938091480078002840F06D
:202B70008E8000250124E8B20CF0C4FB48B1837A3BB1847290F9090004FA00F0C0B20AF0D4
:202B900005FE6D1C032DEED345464FF0030905F1AC0085F810900CF065FE8348002301685D
:202BB0000360824950F8082C98461A4640F8088C05F134000CF062FE3068006B8047A968F0
:202BD000401A010BA869C1F1FF3282422CBF08444FF0FF30A861287F20B1E868A969B1EBA3
:202BF000C02F1ED90BF03CFF414600B12146081C14D0704840F60901018041464180427B84
:202C100064F303024273027B61F30302027341600CF04AFC418811F4406FFBD02C774146F3
:202C3000A9616548016821F0020141F400710160624941F8049C41F230028A600C60502694
:202C50008E600C604FF4CA628A600C6041F80C4C4446046002200AF051FF112006F046F8F5
:202C7000287818B9686838300CF014FE687F18B16C7705200AF042FF514868612C7409F09F
:202C900077F827F0080783E004F0C4FF45467435286808B927F002077AE00CF0E9FDB3469B
:202CB0008146DBF85400016804208847D8B1207CC8B1454608352868A8B10646DBF800004C
:202CD000E568006B8047801BE060000BE060A84202D240194008E06040F6C41181422CBFE7
:202CF000B0F5FA7FE16048460DF0AEF80AF032FD90B1A56920466FF4807100224FF000732E
:202D1000A847464606F16C052868002808BF47F0020701D009F02CF82046646900214FF080
:202D300080630A46A04727F0005731E00CF0A0FD51460E6846B306F1280106C90A234FF0F0
:202D5000E0450B40154008BF002B1DD106F1280191E8300006F1280393E8060006F1280330
:202D7000AA43A14383E806000DF06EF8B16869B1002D08BF002C09D030692246B6F93C1076
:202D9000B4682B46A04701E00DF05EF827F4804727B15046394650300CF084FDBDE8F88F83
:202DB00049210020B01F0020141004406DC000008C0100102C290020000004600C410440EE
:202DD000BD8A0000302000202DE9FC41A0F2013714468846022F40F232819B4E9C493F1FA5
:202DF0000F2F04D9143F4CD0BF1E1CD011E0DFE817F0CF00C9000D01FA00C100B900260170
:202E1000AF00A700100010009D008F007F00740066002D2880F21381B8F1020F40F00F81D2
:202E30008849238807E1B8F1010F40F00881F078012800F00481324620781179107189B949
:202E5000002800F0FC805078012800F0B580042800F0B280062800F0AF80052800F0AC80D4
:202E7000BDE8FC812078002840F0E9805078032800F0AF80072800F0AC80052840F0DF80AE
:202E9000A7E0B8F1010F40F0DA802078012840F0D68006F1EC000CF017FB002840F0CF8079
:202EB0003446002004F13A0107F078FC002840F0C68004F1C8000CF0F9FCBDE8FC81B8F1B6
:202ED000020F40F0BC8020880A28C0F2B880B0F5486F00F3B4808E1C17E0B8F1020F40F093
:202EF000AE802088B0F5FA7F80F2A9800E460CE0B8F1020F40F0A38020880628C0F29F803F
:202F1000B0F5486F00F39B803E363080BDE8FC81B8F1020F40F0938020880628C0F28F805D
:202F3000B0F5486F00F38B803C36EEE7B8F1010F40F085802078062880F28180454E0EE038
:202F5000B8F1010F7BD12078042878DA0A3606E0B8F1010F73D12078082870DA0936307032
:202F7000BDE8FC81B8F1010F69D12078042866DA0836F4E7B8F1010F61D1207804285EDC26
:202F9000F61DECE7B8F1020F59D120880E36BCE7B8F1010F53D13079012850D032462078E9
:202FB000D178D07069B9002849D05078012803D0042818BF052842D101200CF0B5FABDE89D
:202FD000FC81207800283AD15078022818BF052835D110780BF01EF91C490246102003F033
:202FF0002BF8BDE8FC8106F1830500211F22284607F054FF21464246284606F009FE4446FF
:203010003078B4710BF006F9002311E006F1640500211F22284607F041FF21464246284601
:2030300006F0F6FD4446307874710BF0F3F801230094094901950246102002F0FDFFBDE8EF
:20305000FC81C04645DC0000300E002099450110700E00206A0E0020094501102DE9F04F85
:203070008246DAF80070DAF804600C465FEA0208ADF11C0D14BF00214FF0FF31DFF8409288
:2030900048460CF0ADF9002818BF0B2040F0158100258F488C4905708A48FC6052460CF0F8
:2030B000EDFB317B27200CF0EBFBB8F1010F07D0657002200AF034FF06200AF031FF01E05E
:2030D000012060702078012840F2AA80801E012868D9801E012833D9801E012800F2DE80E0
:2030F0000CF0C6FB83464FF0805000F5EE77D0F8DC01A378466A009321782846062908BFD1
:203110000120019001200290A068228AE1686368B047814658460CF097FEB9F1000F40F09C
:20313000BF80B8F1000F02D00BF0C2FF02E050460AF09AFD002800F0A3803868806A2AE022
:203150000CF096FB83464FF0805000F5EE77D0F8DC01012306680093A168A278606824784F
:20317000AC46042C08BF9C466346B047814658460CF06AFEB9F1000F40F09280B8F1000F58
:2031900002D00BF095FF02E050460AF06DFD002876D03868406880474C49C1F8B0510D60A9
:2031B00081467DE00CF064FB83464FF0805000F5EE77D0F8DC01E38A86690093E0680190E1
:2031D000208B0290A0780390207D04900121059122782846022A08BF081CE1786268A368C1
:2031F000B047814658460CF02FFEB9F1000F57D1B8F1000F02D00BF05BFF02E050460AF008
:2032100033FD00283CD03868006A80475FEA000946D1E078A168E28A236907F003FBBFE70C
:203230000CF026FB83464FF0805000F5EE76D0F8DC01E38AC7680093E0680190208B029046
:20325000A0780390207D2946049001200590257805B9014608466268A368E178B847814679
:2032700058460CF0F1FDB9F1000F19D1B8F1000F02D00BF01DFF02E050460AF0F5FC08B94E
:2032900014201AE03068406980475FEA000907D1306802692169E078904781E74FF0FF3923
:2032B000B8F1010F05D002200AF028FC06200AF025FC03480CF0EEFA484607B0BDE8F08F57
:2032D000001B0020381B002091E5000050450240C4290020F0B507460020ADF11C0D0E46A9
:2032F00004466AA50090032201946AA30294FF2103942846049406F019F96AA3B81E0AD0F6
:20331000801E00F0A880401E00F08580401E62D0401E40D01FE0012E0ED0009401942846F3
:2033300002944FF4897103940322049406F0FEF840F213115EA39CE000940194284602946A
:2033500040F20D1103940322049406F0EFF84FF487715CA38DE000940194284602944FF4C5
:20337000957103940322049406F0E0F800942046019040F22B1102900322039057A3049044
:20339000284606F0D3F801208DF817009DF817000028FBD177E000940194284602944FF4CA
:2033B000927103940322049406F0C0F800942046019040F225110290032203904DA3049037
:2033D000284606F0B3F801208DF816009DF816000028FBD157E000940194284602944FF4CC
:2033F0008F7103940322049406F0A0F800942046019040F21F1102900322039042A304902B
:20341000284606F093F801208DF815009DF815000028FBD137E000940194284602944FF4CD
:203430008C7103940322049406F080F800942046019040F2191102900322039037A304901E
:20345000284606F073F801208DF814009DF814000028FBD117E0009401942846029440F2E0
:20347000051103940322049406F060F84FF483712EA3009420460190029003900322049013
:20349000284606F053F807B0F0BDC0466D61696E2E6300C03E3E3E535441434B20415353D6
:2034B000455254002A2A2A4552524F522A2A2A003E3E20494E5445524E414C204552524F3A
:2034D000522100C03E3E20494E5445524E414C204657204552524F522100C0463E3E204442
:2034F000454641554C54205350494E4C4F434B2100C046C03E3E2057524F4E47204150496E
:203510002043414C4C2100C03E3E204943414C4C2054494D454F55542100C0463E3E20492A
:2035300043414C4C2041424F525421003E3E204F5554204F46204D454D4F5259210070478C
:203550002DE9F04F964CA068ADF14C0D002800F0D7804FF000080125FF27C346CCE00CF072
:203570006FFC2178CA0002EB41121219B832B2E8405204ABA3E84052B2E84050A3E84050DB
:2035900092E84410491C01F01F0183E8441004F10C06627821708A4208BFA5700CF054FCB2
:2035B000BDF83630A62158A230460BF0D7FC30460BF0DCFEDDF810A000EB06091FFA8AF07E
:2035D0000BF0EEFA72A20CCA04F0B2F972A20CCA04F0AEF909F082FB00904DA2A6EB09015A
:2035F0004FEA1A434846A6310BF0B8FC30460BF0BDFEBDF8349080195FEA090107D0891E02
:2036100009D0491E05D0963918BF45A204D14DA202E04DA200E055A206990091059B311A71
:20363000A6310BF09BFC30460BF0A0FE0246B9F1990F324423D0B9F1000F04D0A068921BBD
:2036500031460CF0C2F8099800900A9B01930B9A02920C990391089B079A3046A6210BF0D5
:203670007DFC30460BF082FE0A2302460D20921902F8010B314602F8013B921B39E08DF885
:2036900039508DF83A708DF83B708DF83C70EF208DF83D70079E8DF838003078303818D066
:2036B000401E04D0401E27D108260E2201E00226082204208DF840008DF83F808DF841608E
:2036D0005B468DF843308DF844200D228DF842500CE08DF83FB08DF841508DF842B0032002
:2036F0008DF8400005268DF843600C228DF83E500EA9A0680CF069F8A07800283FF42FAFF4
:2037100013B0BDE8F08FC04623253036752000C05B2025642E25303375205D2000C046C017
:203730001B5B33323B316D494E464F3A201B5B33303B316D2825733A256429201B5B306DAE
:2037500000C046C000C046C01B5B33313B316D4552524F523A201B5B33303B316D282573C4
:203770003A256429201B5B306D00C0461B5B33333B316D5741524E494E473A201B5B333016
:203790003B316D2825733A256429201B5B306D00000000000000F03E0000000000408F4024
:2037B000740800202DE9FE4F8A4C617811B900200BF066FB0CF050FB06464FF0000806F62F
:2037D000C4160027844DDFF8149211E038460BF09BFD417951B12A68817902F8081008F135
:2037F00001015FFA81F831460CF026FB7F1CFFB299F800008742E9DB6178884505D000204C
:203810000BF03EFB82200CF013FB6078012840F0C380002701E07F1CFFB299F80000874296
:2038300080F2B48038460BF06FFD064670790028F1D02968B0790A7890421CBF00200BF0CB
:203850001FFBB079A0E0286810F809000BF05CFD00684268DAF808109068814204BF3E46A2
:2038700009F1010900F0A680A8E0286890F800B001224FF4C0710FE0636803F5AD76835C83
:2038900001FB03F901FB0BFE36F809C036F80E60B44538BF9B46521CFBB29A42ECDB4FF6B4
:2038B000FF700CF0C1FA064658460BF02DFD4C490068D0F804A00868D94630F819206068A2
:2038D0004FF4C07300F10E0103FB09F3C85AB2EBD00F52D2720840F6C410424300920027E4
:2038F000404A0190029217E058460BF00DFD01680A78802A03D1DAF81030009A5A6109781E
:20391000402908D1029980790A6802EB4011009800F5A060C8617F1C47452EDA2868C05D7F
:203930008345F8D001464FF4C073594363685A1803F5AD73D289595A53088B4202D2521AC3
:203950009045E8DA0BF0E0FC01684A68019B9168DAF808207008A1F6C41103FB00200CF041
:2039700077FA0028C0D01E48006830F81910491C20F81910286810F807B01948026800210E
:203990005B4622F813105846BDE8FE8F00200BF077FA82200CF04CFA617828680CF040FA5A
:2039B000286800780BF0B0FC00260068D0F804A04FF00109771CC145FFF645AFF6B2002EAD
:2039D0001CBFF8B200287FF450AF286890F800B065E700BF684E0020004F00207B4F0020B6
:2039F0009C290020844E00202DE9F04385B011F8017B0446082F04F1FD0004F1FC0804F17C
:203A1000760504F5A076844A844BDFF8149213D0092F21D00F2F2FD0112F01BF28780128E0
:203A30006878102840F0D5800A78327648787076012184F83D11EBE00025521C4E5D5F5D58
:203A50003E434E55575D3E4046556D1C082DF5DB204607F057FE74E00024571C0D5D1E5D55
:203A700035430D553A5D15400555641C082CF5DB022088F80000CBE098F80100820704D453
:203A900010F0110F57D01A2266E008784A7800EB02203080CA78887800EB022070804A794C
:203AB000087900EB0220B080CA79887900EB0220F080087A30724A7A887A02EB002272818B
:203AD000C87A0A7B00EB0220B0818A7B487B00EB0220F0810A7CC87B00EB022030828A7CFD
:203AF000487C00EB022070820A7DC87C00EB0220B082487D897D00EB0120F0824948017896
:203B10008A0658BF1A2212D504F5A670049071890391307A029021890191F0880090B388DF
:203B300072883188204607F01BFBE0B11E2298F80100410710D40F2088F8150020460CF09B
:203B50006BF9002864D199F8000005B0BDE8F0434FF4804105F06AB8204605B0BDE8F04368
:203B70000F210CF055B97088A882B188E9820221F0882883297400206882A18EA88AC91D01
:203B9000E981618EB0EB510F02BFE88AA18E884202BF288BE18EB0EB111F18D02878012836
:203BB00004BF68780F2805D0687918B10F21A972FE2127E0FC2120460CF026F9F088009085
:203BD000B38872883188A0790CF01AF920E0102118E0491E20460CF00FF9032F18D1A8788A
:203BF000042818BF0D2813D16E78142E18BF0E2E0ED12F7820460CF0FBF8012F06BFAE726E
:203C1000FD213146204605B0BDE8F0430CF0FCB805B0BDE8F08300BFEC4D00208C290020A2
:203C30006E4F0020144E002010B50B7884074CBF43F0020303F0FD0304064CBF43F0800341
:203C500003F07F0304074CBF43F0080303F0F70384064CBF43F0200303F0DF0310F0AA0F25
:203C70000B7003D0107840F00C0003E018B9107800F0F300107010BD2DE9F8430D460027EB
:203C90002878022814461E4667D1696808784978DDF8208000EB012080B25FEA08021CBF61
:203CB000B0F5285F0B205BD14FF42851401A08D0401E21D0401E2FD0401E25D0401E31D025
:203CD0004BE0DDF82490E8680BF0FAFD80B2A0EB08024A45BCBFA0EB08001FFA80F909EBF4
:203CF0000800162806DAA6F800904A46E86800EB08010DE00D2732E0E868008802213180AD
:203D10002070000A60702AE0062030800622E96820460BF0FDF922E001203080E9680A78D3
:203D300022701CE0E868B0B1082131800288227003881B0A63704188A1704288120AE270A9
:203D5000818821718288120A6271C188A171C088000AE07103E0308001E0378001273846F0
:203D7000BDE8F2832DE9F0470F46814638780024022890461D466DD17868089E0178407884
:203D9000DFF8D8A001EB002189B24FF42852891A06D0491E29D0491E4ED0491E39D059E0B8
:203DB000F8680BF08DFD80B2B04204D3A919162903DB0D244FE007244DE0FB682A46414622
:203DD00098190BF0A5F9AD19F868ADB2C5F11602002140190BF072FDDAF8000000281CBF7D
:203DF0000268002A37D0002123E08EBB022DE0D198F8000098F80110FA6800EB012010809C
:203E1000DAF8000000281CBF0268002A23D001210FE0EEB9062DCCD1F868062241460BF0A4
:203E300077F9DAF8000000281CBF0268002A12D00321484690470EE056B9012DB9D198F8E9
:203E50000000002813BF0128F9680870802402E00B2400E001242046BDE8F087AC29002025
:203E7000FEB57748774A0078774C784B78490D2840D8DFE800F0E307070707DBDB5EDB9AB4
:203E90009AB8B8BF146041F2044572494C88AC421FBF4E8BAE424F8EAF4203D11D806E4840
:203EB00010607AE0002C6D4D1C804FF4A05639D0641E3CD0641E35D040F2FE37E41B1AD0FF
:203ED000241F012C1DD94FF47F77E41B1BD04FF44067E41B0FD0A41E012C0CD9241F0AD090
:203EF000641E012C0DD940F2F937E41B012C19D9241F08D09AE0022814BF1E80584D156053
:203F10004BE0584DFBE7584803681C7A012C05D141F20240488048834886F0E74E804E83EF
:203F30004E86ECE700200AF0ABFF832082E08F2080E04E488178FF2954D0146018204C4CD3
:203F500041432068851C40F204466C5A1C80A41B012C484B72D94FF47F76A41B0FD04FF4E3
:203F70004066A41B032C84BF641F012C0BD9A41E012C63D940F2FD36A41B08D103E0801C1F
:203F900041F201444452136004F008F905E000200AF076FF85200BF04BFF03B0BDE8F040B5
:203FB00035480078012104F041BE40F204424888188090421CBF41F2084290423ED041F6C6
:203FD0000402904211D12D4C2D482E4B00680025CDE9004502222C4C256855F8086FB04744
:203FF0002A490880F7BD4888188000200AF048FF85201FE04888188002280DD940F20442A5
:20401000801A1BD040F6FC72801A05D0083815D04FF47F72801AE8D1887B801CC2B2B52A5A
:20403000A8BF6620887300204880F7BD00200AF027FF8420BDE8FE400BF0FABEF7BD00BFFF
:204050006F4F0020204F002045F80000504F0020CC4C0020204A002059550110615A01109A
:20407000B1540110755B0110104F0020684E0020804E0020313901106E4F0020020000801C
:20409000EC4E0020DDDB0000F04E0020424F00207CB5894D144602460026A2F58062182A65
:2040B0001AD8DFE812F0FE00F800F100E900E200DC00D500D0001900C500BE00B700AE0001
:2040D000A3001900190080006F00680054004C00420039002C0024002D2880F28580022942
:2040F00040F08280218809F0A5FD0646E1E0012940F0DE80002C00F0DB801135A6E01029F9
:2041100040F0D680002C00F0D38028465030102221460AF0FDFFCCE0012940F0C980002CA2
:2041300000F0C68029468D1D90E0262940F0C080002C00F0BD8005F160002622E8E7012901
:2041500040F0B680002C00F0B3806D1D7EE0602900D13CB9012940F0AB80002C00F0A8809A
:204170000D3573E005F18600214660220AF0D0FF012068739DE0012940F09A8020780BF0EC
:2041900033FE96E0012940F093802078022800F38F800C3528702078022814BF301C01205C
:2041B0000BF01EFE85E0072940F08280611C684606220AF08FFE20786946324605F012F978
:2041D00004460A2C10DA0BF007FE38B9204602F0E1FF0AF09DFA08F059F96AE02A46012086
:2041F00002F12C05285564E0022662E001295FD1A87B21780028A9735BD12078012858D1F0
:20421000E9E7012954D12478072C51DB102C4FDC0B3537E001294BD124780A2C48DA09353E
:2042300030E0012944D12478022C41DA083529E000293DD10BF0D0FD10B90AF0FDFFC8E787
:2042500001240F351EE0012932D10A35247819E001292DD12478022C2ADAED1D12E01029BB
:2042700026D12B4603F1400051E7012920D12478022C1DDA2D1D05E0012919D12478042C6F
:2042900016DCED1C2C7014E0012911D12478022C0EDAAD1CF6E702290AD120881435288080
:2042B00007E0012904D12478022CD8BF6D1CE9DD182630467CBDC046F81400202DE9FE4FD6
:2042D00005467B48002400680094C00905D37948007810B9202009F0E1FC012D40F0E28027
:2042F000DFF80092D9F8DC00012840F0D8800220C9F8DC000AF070FE012009F0CFFC5FEA92
:20431000000805D00120C9F8DC000AF071FECBE00BF0C4FAA34602906748684DC0F800B0DE
:20433000A86A016801208847012804D1584607F055FA012000906248624FC0F800B038680C
:2043500011200BF0B7F900B1012410200BF0B2F908B144F002040F200BF0ACF908B144F016
:2043700004040B200BF0A6F920B12868564E016B308888470A200BF09DF920B12868534EAB
:20439000016B308888475248012606602868816944F0200088474F4806600BF085F900F0F0
:2043B00001010191400814D2286A81684A4888478246BAF1040FF7D0BAF1010F04D1286AE0
:2043D00042684548032190474449086820F003000860584600F088F82B683868986B804718
:2043F000019801280CD0BAF1010F04D1286A42683948314690473949086840F003000860E7
:204410002F48066028684169204688470B200BF051F920B128682C4BC16A188888470A2034
:204430000BF048F920B12868284BC16A18888847274806600322C9F8DC20264BC3F800B02F
:204450002868416B204688470128F9D13868042009F024FC04461848066038681448006897
:204470008009FBD30098012802D1304607F0B6F90BF007F9082009F011FC07460298C9F854
:20449000DC600BF0A5FC1648008806F013FF0AF0AFFD57EA040018BF4FF0FF3804E06FF0CB
:2044B000040801E06FF001084046BDE8FE8FC04614100940681800200C400940B80100106E
:2044D000000222432C200940DE0A0100DA0A01002820086080010443004003402422084079
:2044F000F80E0100801700202DE9F84FDFF804B20746ABF13500DFF8F0810068800880F03E
:20451000E28075480068006880477E490831D1F8009000254FEA29715FEA995201F101015C
:204530000AD2C0F13E0210F10A0F4FEAE202D8BF08229142B8BF111C684BD3F87C21C2F35F
:204550000462162AA8BF203A1B68C3F30443162BA8BF203B9A465218162A05DA12F10A0FDC
:20457000B8BF6FF0090200E015225D4B5D4E02F01F0141F4F8511980316811F0030F18BF34
:204590000125C90828BF45F002050FB145F00405434693F90710411A052904DA9979A94263
:2045B00008BF99886FD0DFF844E10F28A0F10F0829DB08EB0011A1F1F0084FEA2821009144
:2045D000072984BF07210091062988BF06215EF821600424774604EB81043C594FEA950C63
:2045F000A41BEE0804F0FF0124BFC4F3072631446F08AE0824BFC4F3074631446E0828BFE0
:2046100001EB146104E000214FEA950C6F080091009C5EF824E05FEA5C060EF0FF0424BFBD
:20463000CEF3072634447E0824BFCEF3074634446E0828BF04EB1E64009E89B2A8EB0626AF
:204650007143803104EB1124AAEB02010029D8BF0121342209F0FF074A4391B24FF6FF726C
:204670007943B1FBF4F18A4238BF111C802889B2998005DA10F1800FB8BF6FF07F0000E04D
:204690007F20D8719D711A4800681F2918604FF0000008D340F2FF128A4206D24908401CDC
:2046B0008A42FBD301E01F219980134F0F39090940EAC10047EA0001CBF8FB1F0026CBF877
:2046D000FF6FBDE8F88F0D490D4F434608200F609B1D1870BDE8F88FEC0100103C11005058
:2046F0006E62084024220840942900209C130050082009403500094000E7A48030100940A5
:20471000FDFDA400AC3F00502DE9F0410446804DA178A869ADF1180D891F00F0F280C91E74
:2047300000F0DD80491E5FD0491E48D0C91E3CD0481E40F0E980287A697AB8B96878002817
:2047500031D0A0880BF040FB071C00F0DD80A07A40080FD3787968B1E168890A0AD2B91D9E
:2047700001AA04F03FFE0A2804D10321A0880BF027FBC9E0287B022802D1A07A0009F4D3AA
:20479000A088797904F1080201F08EFBA869002800F0BA804368002B00F0B68000210A46A6
:2047B000A0889847B0E00521E0E7002800F0AC804368002B00F0A88062780221F0E70AF065
:2047D000A3FE002800F0A080A86950B1076847B1206900906189227B637BE01C3C46A04794
:2047F00092E060890121C2E767784FF00008002F66D1A179490863D3EF69002F60D101A8F5
:2048100041460E220BF05AF8A0880BF0DDFA071C7AD0606940B97879B91D06228DF80A00DD
:2048300001A80AF075FC19E06669307C062206F111018DF80A0001A80AF06AFC07F10C0013
:20485000B91D06220AF064FCB81D062206F111010AF05EFC307C40F002007871A079C008EE
:2048700039BF387900F0FD00387940F002003871A079000939BF387900F0DF00387940F08B
:2048900020003871A1799DF81120C1F3800010438DF81100080905D39DF8110040F008007B
:2048B0008DF8110001A8214600F01EFD28B92878022104F0BBF9404627E0A8694FF01508F1
:2048D00010B3436803B3A088627801219847B8F1000F19D0A86943680321424660E7E078F9
:2048F000211D002204F07EFD0A280DDA410001EB800004F10C0225300421C0B203F096F8A3
:2049100002E0A08807F03AFF012006B0BDE8F081F81400202DE9F04F044672488E4601689E
:2049300094461F46BEF1000FADF13C0D4DD0BCF1000F4AD09EF8002001209040014244D092
:20495000BCF80000B0F5C15F32D1DCF81400DCF81860654BDCF81C50DFF890A10B904FF0C5
:2049700003080DF128090C9618680D95C0F3036B59F8046FCEB10021351F05200B4655F88D
:20499000042FB2F1FF3F10D0924506D0401E01F1040103F10103F2D107E0052B05DA705898
:2049B00020F4702040EA0B407050B8F10108DFD1C4F804E0C4F808C00AF05AFF4C4D8046D6
:2049D000287820B140460BF03FFA002087E002F023FA4849086840F00200086007A80AF0C2
:2049F0006BFD002605F1D00007AA4349099608F02FFD424905F5827007AA08F029FD07A85E
:204A10000AF02AFDFF20192107AB3D4A089005F1340008F0A3FC3B4A05F150001A2107ABC2
:204A300008F09CFC3849324605F18800134607F055FE3649324605F1AC00134607F04EFE87
:204A5000334A05F120000421334609F0D5FD0E2004F064FA05F174000AF01AFC05F16C00EE
:204A70000AF016FC2E740523EB60072085F898012E77AE616E772849AE60264A69612B78D3
:204A90001670581C287040460BF0DEF9B1461FB968460AF011FC6F4638682060388A60821F
:204AB000012060747B6813B940F6C4130646E3601A48A06126746061F86800B1A061B868B6
:204AD00000B160614946582204F1200006F0E6F904F13800494609F021FC6C6020460FB09E
:204AF000BDE8F08FD4210840541300500200F844B01F00200020094031F00000A5870000AB
:204B10006DC00000F9B9000051EA0000E9ED000051CA0000BE290020BD8A00005784000051
:204B30002DE9F0477C4C2369E5680F4691460FF2D40A011CADF1180D11D0491E07D000224B
:204B50000746154640F2471133A328464DE043A040F24311A61D04F102081D4605E041A04E
:204B70004FF49C71261D04F1010800900197002002900122039032A30490504604F0D6FC3F
:204B9000022F2CDA5FB3404649463A4605F040F83780A878002808BF34A103D001280CBF98
:204BB00039A13FA12888002700903E460122019140A3029740F2571103965046049604F0B8
:204BD000B5FC07200090FF270197544F04F11403414632462846029704F004FB0FE00122E5
:204BF00000204FF4B0713EA315460097019204460295032203905046049404F097FC06B0B7
:204C1000BDE8F087627574746F6E5F736572766963652E6300C046C0536574506172616D08
:204C3000657465723A20506172616D6574657220232564206E6F742076616C69642E00C05E
:204C5000536574506172616D65746572203A202573206C656E3A20256400C04642555454DE
:204C70004F4E3100425554544F4E30001B5B33336D4E6F74692F696E642064697361626C6E
:204C900065641B5B306D00C04E6F74696669636174696F6E20656E61626C656400C046C0D0
:204CB000496E6469636174696F6E20656E61626C656400C0547279696E6720746F207365BF
:204CD0006E64206E6F74692F696E643A20636F6E6E48616E646C652025782C20257300C0F9
:204CF0004C656E677468206F75747369646520626F756E64733A204C656E3A202564204DB1
:204D1000696E4C656E3A202564204D61784C656E3A2025642E00C04630190020F164000070
:204D30002DE9FE4F0E468246307AC10693461F464FF000090CD558460BF03EF8030000F04A
:204D5000E8800A223146504698475FEA00094DD130780C9D0D9CDDF8388002281AD17068DF
:204D70000178407801EB002189B24FF42052891A012910D9891E3AD0491E14D0FD397AD0C3
:204D9000491E00F08180491E6DD0491E73D0491E00F09580ABE0002C2AD1F06801782980C5
:204DB0000278416887E0002C22D101202880F1680A783A7000217089401C80B20AF0F8FF53
:204DD000298860B10278921C51182980418979704289120ABA7041680278F81C6CE0091D5A
:204DF000298004220021781C0AF068FD93E0002C66D1F0680688042129803E70320A7A7062
:204E10000DF1020130460AF0D3FF040021D0D4F80C80BDF802204FF6FF766B4631460AF03F
:204E3000C3FF40B9237862683C4802210AF0B8FF08B9ADF8006098F8000002280BD1D8F8BE
:204E500004100222381D0AF063F92888801C288001E0ADF80060BDF80000B870BDF80010E3
:204E7000090AF97057E0002C2AD1F068016850460AF0E2FA02E01CBBF068008802212980B6
:204E90003870000A787046E0F0680AF019FD80B2A042B8BF4FF007093DDB844208BF002239
:204EB00005D008EB04028242B4BF4246021B2A8092B2F068011938460AF02AF92BE014B16D
:204ED0004FF00B0927E0F0680721298002783A7043787B704188B9704288120AFA700179B9
:204EF0003971C2887A71C088000AB87113E058460AF052FF5FEA00090BD00F980290CDF841
:204F1000048000942B463A4631465046C847814601E04FF00E094846BDE8FE8F560C01003B
:204F30002DE9F04F09AF3C798246002089461D46ADF11C0D804606923EA6CDF814903F884C
:204F500000904FF4E571CDF804803EA3CDF808800122CDF80C803046CDF8108004F0E6FA8E
:204F7000484607F033FCDFF89CB1C1463EA310B3401E0FD0CDF80080484601904FF4F77152
:204F900002900322039031A30490304604F0CEFA0A204BE045A00090CDF804A040F2E911BE
:204FB00002950122039723A0049404F0BFFA584600F1020B0CE03FA00090CDF804A040F2F3
:204FD000DB110295012203971AA0049404F0AEFADFB97E19022E12DA1EB9182C0CD0122C13
:204FF0000AD005980699C0682A46C01904F010FE0EB1ABF8006018E040F2022101E040F2F6
:20501000F9112EA34FF00D0904E04FF4FA7134A34FF00709CDF80080404601900290039017
:205030000322049003A004F081FA484607B0BDE8F08FC0466C65645F736572766963652E73
:205050006300C046544553543100C04641747472696275746520776173206E6F7420666FDB
:20507000756E642E00C046C05772697465417474724342203A20257320636F6E6E48616EC3
:20509000646C6528256429206C656E28256429206F666673657428256429206D6574686FFA
:2050B00064283078253032782900C0464C45443100C046C04C45443000C046C0496E766159
:2050D0006C69642076616C7565206C656E677468207761732072656365697665642E00C0E8
:2050F000416E20696E76616C6964206F666673657420776173207265717565737465642EB8
:2051100000C046C0A21A00202DE9F04F754F1E46ADF1340D01914FEA960902923D6800904E
:20513000710809F1020221F0010105EB8200091D0390901805EB80000490501805EB800323
:205150008018059305EB8000079026F0030000F1080802EB080005EB8003401808938018FB
:2051700005EB80000990C6F39C008000083002EB4000411805EB800305EB810B0A93891856
:20519000831805EB8104404405EB8303C6F3990105EB80008900069038680B930A010021A9
:2051B000803205F07BFE4849DFF820A109682846AAF1880290470746B94518BF6FF0010039
:2051D0007ED128465546394605F1680290470198314609F035FD002818BF012070D102987B
:2051F000314609F02DFD002818BF022068D103980199A84704980299A84700988168059843
:20521000A847334B0399059A20469946C847012802D1BD0066590EB1032051E02046002170
:20523000424605F03BFE0499059A2046C847012801D166590EB1042042E0274B254D0798B5
:2052500003991E462A46B047089804992A46B047079909980A46B0470A980999079AB047CF
:205270001E4D0B9807992A46B04720460021282205F014FE1A4B0A990B9A20469946C84730
:20529000203520462A460146C847089958460A46B04706980021424605F000FEFDB2584670
:2052B000002D0CBF0122FAB20021635C455CAB4218BF052004D1491C521EC9B2F5D10020A2
:2052D0000DB0BDE8F08FC0468C4F0020B9DB0010C9DE0010DC1D0020F9E00010D00B0100A3
:2052F000C9E60010884F00202DE9FF478146714CDFF8BCA1E069884600284CD1B9F1000FBF
:2053100000F09480B8F1000F00F09080484609F0CBF805460A2D23DAD8F814702574002FDC
:2053300037D0680010216A4600EB85002330C0B209F0E0FC90B950460778FF2110226846A5
:2053500009F0FFFD50B93FB999F80600494600F001000AF01DFD01E00120A074E0691AE0C3
:2053700004F1E6070A2600253846FF21062209F0E8FD68B9761E07F10E0705F10105F3D1C0
:20539000607C002804BF0A2020744FD094F836502574E06900E0257C0A2D47DA002835D15E
:2053B00068000E214A4600EB85002030C0B202F03DFB207C07F090FB6846FF2110220AF042
:2053D0007DFA207C10216A467030C0B202F02EFB217C0E220801A0EB410000194946E6303C
:2053F00009F096FED8F814206AB15046007840B9107C02F11101002300F001000AF0C4FC8B
:2054100001E00120A074C4F81C804CE08268002A3ED10269002A2FD142690ABBC2683AB99D
:20543000A07B08B108F0F4FD09F055FC01203BE06800102100EB85002430C0B202F0F6FA68
:20545000E769217CFA68480000EB8100103225300421C0B202F0EAFAE1690020C86022E0A1
:205470006800102100EB85002330C0B202F0DEFAE1690020486116E068001C2100EB850066
:205490002230C0B202F0D2FAE169002008610AE068001C2100EB85002130C0B202F0C6FA33
:2054B000E1690020886000200090BDE8FF87C0465A4F0020F81400202DE9F0430546880F89
:2054D000ADF1140DC0F0BF80604C201D006840688768C668406800B18047002F08BF002EB4
:2054F00008D009F0F3FE07B1B84706B1B047584809F06EF8574809F0D7FF574A40F60A0C1B
:20551000A2F800C000205080117B60F3030111735060517B4FF0010969F303015173AB68CE
:205530006E7C58801988A1F60201C9B141F21E07C91B15D041F6E677C91B012920D8597E52
:20555000012E60F38201597606D0198B21F47C7141F43471198313E0198B60F30911F9E791
:20557000597C012E60F38201597405D0198A21F47C7141F4347102E0198A60F30911198293
:20559000D5F8088068746146464600E03E46776817B13B889942F9D17260737B60F303030B
:2055B0007373E76E3FB1FB681B88CF1F9F421AD0891F994217D02F8CB7B1686205F1200183
:2055D000488095F82C3060F3030385F82C3095F82D3069F3030385F82D305160517B60F3E2
:2055F0000301517300E0A0601C4801688768C568009110226946406B019720F0784040F05D
:20561000805003901648029504F002FB09F05EFE14486061607F68B9134800680168484605
:20563000884701280CD0707B69F3030070730F4F676105E007F092FD0028FBD00AF026F9BC
:20565000404609F031FF05B0BDE8F083B01F00200100070601010E042C2900204C13005089
:2056700018000021152B0000E0010010E5C200002DE9F04FADF1240D079001F0CDFB5F48EE
:20569000007809F0A5F85E4D0024012806D90C3804D0401E0ED0401E09D006E009F078FC37
:2056B000022804BF01210C1C06D0696805E005211F2401E0032107246960524A1068C0F3EE
:2056D0008150012806D152F80C0C0127020E07FA02F0044309F0E0FE05F1440AFF22534640
:2056F0004018401E471C28607F1E03F8012BFBD1079A1268002602F0FF03FE2B1DD0DDF849
:205710001CC0964633460EF0FF07FF2F0ED0B84205D3B94203D80122BA40144201D002202A
:2057300069E016430EF0FF020AF802305CF804EF5B1C0EF0FF07FE2FE7D1092003F0EEFBD8
:2057500007980121A86005F1280008F0E7FD00274FF0010BB9462846804600F198050BFA3E
:2057700007F0044216D1064204BF07F0FF0141F4C04104D01AF80700079951F8201022484D
:2057900002F0D0F9F8B24FF0FF3109F039F9C5F8009001E004202860D8F800007F1C2D1D6B
:2057B0008742DCD904A809F057FE184C184A2078102104AB059008F10C0007F0CFFD684618
:2057D00009F07AFECDF80C906A4660681149029008F1640007F03CFE0F4951F80D0C20F427
:2057F000F85040F4005041F80D0C0C4FC1F8FFBF4846C7F800B009B0BDE8F08FC5290020C1
:205810006C160020B43F0050007FC76714100100CDED00002DD100000D3009400800094032
:2058300061480178002900D170472DE9F843491E032984B004D9891F012940F2B180A9E0D2
:205850005A4CDFF86C912068DFF8688103685A4E03F10805062205F1080102A809F058FC44
:205870000622A91C684609F053FC2878C1091D2700F00F02032AC0F3801537D16079C0F37D
:20589000800081421ED12169062202A809F058F900287AD0694628460AF0FAFA002874D037
:2058B000314668460AF0F0FAFF286ED04743D8F80000807AF519002818BF02280AD00128DC
:2058D00018BF032861D1F25D691C48460AF058FA10285AD06B46EA1D294648460AF04CFA7F
:2058F00006226946E81D09F013FC4EE000F00F00052855D16079C0F38000814245D12169C5
:20591000062202A809F01CF900283ED0694628460AF0BEFA002838D0314668460AF0B4FA95
:20593000FF2832D04743D8F80000807AF519002818BF01280AD0022818BF032825D1F25D59
:20595000691C48460AF01CFA10281ED040F2024007F09CFD6B46EA1D294648460AF00CFA35
:2059700006226946E81D09F0D3FB1448144A41F20441418041834186124801801249134865
:2059900011600121007803F051F921680A680020107105E0002009F073FA86200AF048FAC6
:2059B00005B0BDE8F08300BF6F4F0020F44B0020CC470020104F0020AC450020204A0020C1
:2059D000204F0020504F0020595501106E4F00202DE9F04F0746ADF1140D0393002F029213
:2059F0000E9801910F9C049000F0B680081C00F0B380101C00F0B080181C00F0AD8004987A
:205A1000002800F0A980002C00F0AB80206A002800F0A280564D666A281D0068002E00F0EC
:205A30009B80A16A0AF0A4F940B2002808BF6FF0020700F08D8084F82C002078618800EB3F
:205A500080000918143188B2216A88474749086030B9284640680AF087F94FF0FF3777E07F
:205A70008B46628823786088DBF8001025789E1800EB010A701800F1040805EB450002EB05
:205A90004306851876186D18C01805F10C098018401800F11005204607F090F82078C01CCB
:205AB0008010CAF800002078C01C8010C8F8000020780836C01C801030602078C01C8010EA
:205AD000C9F800002078C01C80102860227839460AF1040004F09CF82278019908F1040098
:205AF00004F096F822780299301D04F091F82378204641463246FFF707FB071C12D1009582
:205B10005046414632464B460AF02AF947B22278039809F1040104F07BF822780498291D22
:205B300004F076F821786288DBF8000001EB81015218002105F0B2F9616ADBF80000884797
:205B50000B4840680AF010F9F8B2992808BF002784F82C70384606E01CB16FF0010084F8B9
:205B70002C006FF0010005B0BDE8F08F884F0020D41D0020F8B5674C04F12C060978356803
:205B9000281980F88411E06A06F5AC760B28C0F2B38030180B380178EF294BD1417801290D
:205BB00048D18178FF2945D1C178FF2942D10179FF293FD14179FF293CD18179072939D13C
:205BD000C779002F36D1017A032933D1477A002F30D1877A77BBC07A61790A282AD100250A
:205BF0000129E56204D0032918BF052940F08480E0690346481E0DD0801E04D0801E15D120
:205C1000A571012207E0184606212A4607F086FD012205E02A461846062107F07FFD2A4605
:205C3000E069072107F07AFDE56A6179491CC8B2607161E0701908380178EF295CD141781B
:205C5000012959D18178FF2956D1C178FF2953D10179FF2950D14179FF294DD1817902292B
:205C70004AD1C779002F47D1007A822844D16079062841DBA079401CC0B20128A07134D0F1
:205C9000022839D1E0690621012207F047FDE0690721012207F042FD04F533703146802273
:205CB00003F0B6FF002004F513726421E06205F0FFFD04F52C720120642105F0F9FD04F5B5
:205CD00045720220382105F0F3FDE07903276946401C8DF80070C0B28DF801000222E071AD
:205CF000052007F055F9E56A06E004F513703146802203F08DFF002596216D1C95FBF1F00B
:205D100048432D1AE562A06A012204F1C90109F057FDF8BD080200202DE9F843614C5A4D9D
:205D30005A4EDFF870815E4F94F8E4100846401E0B2864D8DFE800F07B2C43062343062365
:205D500043067664042907D001220A2945F8212C14BF0220032004E0202045F8210C012065
:205D7000024684F8E200002045F8390C0827C5F8FF7FC5F8F37F45F8392CBDE8F883052942
:205D900014BF09200620002784F8E400376075E094F8E170383D0120002FC5F81B0004BF21
:205DB0000620002102D00021F160032084F8E400032045F8010C3160306880085ED294F8EB
:205DD000E4103348012703290ED00068456800216022052300914046A84794F8E40006288E
:205DF00014BF0A200720CFE700684568002160220523022000904046A8470420C4E7FEE7FE
:205E10002548264F0026012506600E203D6002F06DFF022007F072FE84F8E45084F8E360BD
:205E3000BDE8F883002038600C25786024E04FF08059D9F8A0010168202088472C3D0F20D3
:205E500045F8010C41F61D56C5F80360D9F8A401466800214FF4C0720723022540460095F8
:205E7000B047D9F8A401C66800214FF4C07207234046B0470120386084F8E45004F1780064
:205E900009F0EEFCBDE8F88339400C4038600C40A401001000A00C402C500C4004800C400D
:205EB00034600C40801700202DE9F04F88468246ADF1AC0D299209F087FF5C4CE67894F82D
:205ED0000BB0A57A94F80C90071C00F0AB8068460021A42209F0F2FC2801279A55498DF8E9
:205EF000046005F0030300F4807605F00405ADF800A0B9F1020F01EA020143EA01024C4B96
:205F10008DF8A0B046EA020100F4C06603EA010246EA020045EA00054FF00000279508BF37
:205F300001208DF8370009F017FF412809DB207B00280CBF002008209DF8991008438DF834
:205F50009900607B002804BF00208DF8380017D001208DF8380004F1860120220DF139003B
:205F700009F0D6F80DF1590004F1A601202209F0CFF80DF1790004F1C601202209F0C8F827
:205F9000A07940B18DF8260004F1500110220DF1270009F0BDF866793EB104F16000B91DF8
:205FB0000622054608F0CCFD68B92079002804BF00208DF8050015D08DF8050004F14001A9
:205FD0000DF106000BE08DF805600DF1060005F11601102209F09CF80DF11600A91D1022FC
:205FF00009F096F8E07930B1B8F1000F03D0279941F002012791002100B10121A7789DF8F1
:206010009900002F41EA00018DF899100CBF002004209DF89910084329998DF89900684628
:2060300009F096FE2BB0BDE8F08FC046F8140020FBF9FFFFFCFEFFFF0FB42DE9F04106AFE9
:206050008046ADF1280D09F09BFB3E1D26F00306361D30F0010001D100F0DDFECDF81A603E
:206070001420ADF816000025CDF80E50FF248DF818407B68CDF81E3009F066FE064609F041
:206090007FFB30F0010016D008F04EFF84464D4806212A46483030F80C7F4FB143681B68DB
:2060B0009E4204D0491E02F10102F4D100E0D4B2604609F069F8404607F006FD0146FF29A5
:2060D00005D0204603220DF11A0305F043FA09F03BFE07F0F5FEA8460746CDF8008009F06E
:2060F0004FFB30F0010063D0002F61D041F2883001A907F0B5FE009C002853D109F020FE54
:206110000199012645187868019B41464FF00052FAF73AFA00282BD00DF122000DF1230133
:2061300002AA05F085FEB0B99DF8220003A907F0AFFE38B9029A09F005FB00281CBF029C94
:20615000464615D10299684608F07AF878684FF0005109F0F1FD0198B0F1FF3FD3D0002870
:20617000D1D009F0EDFD281A02D00199814217D208F0FAFD07F10805009F08F0D5FE01468C
:206190003FB13A4652F80C0C40B9286842F80C0C2F60084608F0F8FF304603E00246F1E7FD
:2061B0000190B0E720B92CB1204609F031FB01E000F031FEDDF81A0000680AB0BDE8F0417F
:2061D00004B070479418002070B5484C484B2568186855F8183F00224FF0FF31984745487E
:2061F000454A416B454C8868454D41791170002609F09EFD434809F097FD09F091FD424823
:20621000026800215171A02301680722CB804A72032103681972002201684A7700230268D2
:20623000D3760021036883F85C10012201680A770123026882F85D300021006880F85E1081
:206250000EE06068F1B24FF4C072514342185379012B04D1F0B209F057F809F05DFD761CD6
:206270002978F0B28842ECD309F052FD2748284A0178284C117007F027F92748D0213022E2
:206290000023017042708370C370037143718371C37109F039FD2149214B00200870002273
:2062B00020491A700120204B08701A701F49204B08701A701B201F491F4B0A701A804FF414
:2062D000A4721E491E4B08801A80FB201D491E4A088040F648001D491080FB230B80208078
:2062F00009F00EFD1A490020087070BDF04E0020EC4E0020A0100100714F0020684E002043
:206310007B4F0020CC470020104F00206D4F00207A4F00204E4F00208C290020734F002098
:20633000744F0020754F0020764F0020774F0020784F0020794F0020524F0020444F002078
:20635000464F0020484F00204A4F00204C4F00206F4F00205A480178042900D870472DE982
:20637000F84F891F2FD0491E012900F29E80DFF854A19AF80200FF2825D008F0C5FF83467D
:206390000BF16C07786809F0B7FC804698F80400032818D1D8F80800047814F0030404D150
:2063B0007868BDE8F24F09F0A3BC4578032C00F102090BF20F160BD035B1387820B93D21FD
:2063D00071700120307078E03F490A78012A74D09BF8941059B32D1FEDB24B462A462146A4
:2063F000584609F081FC40B93D207070012131703648BDE8F24F09F073BC3548016888473F
:2064100000904FF4C0709BF80620DAF8041042438818002180F839110BF59A700168807956
:20643000490805F07DFB2B4900980A6890470020032CC8F8080016D027484169087882071A
:2064500007D5C0074CBF03200020401919F8000000E08120387223469AF802002A464946AA
:2064700000F0F2FA18E099F80000192803D21B4A115C8D4205D0B0700721584609F0C4FC7C
:2064900007E00F480178082903D049465846FDF7ABFA484606F046FB786809F029FC414621
:2064B0005846BDE8F44F09F017BC002008F0E8FCBDE8F24F862009F0BBBCBDE8F18F00BF9E
:2064D0006F4F0020684E0020794F0020AC4500209C180020A0180020A0100100D8100100B9
:2064F0002DE9F04F09AF97F80890BE8883469A4688460846ADF11C0D3F88059206F0C6F874
:206510004E4903468D88C8880024ABB15B1E0ED020460090019040F2D1110290032203906A
:2065300023A304901DA003F001F80A2032E036A24FF4E671054602E035A240F2C111009200
:20655000CDF804B015A0029720A3CDF80C900122049402F0EBFFBD420DDBED1BB542D4BF30
:20657000AAB2321CAAF80020D8F80C100598C91903F04EFB0DE020460090019040F2D7116A
:2065900002900322039024A3049004A002F0CEFF0724204607B0BDE8F08FC04662757474B2
:2065B0006F6E5F736572766963652E6300C046C041747472696275746520776173206E6F2B
:2065D0007420666F756E642E00C046C052656164417474724342203A20257320636F6E6E8B
:2065F00048616E646C653A202564206F66667365743A202564206D6574686F643A2030782F
:206610002530327800C046C0425554544F4E3100425554544F4E3000416E20696E76616CA3
:206630006964206F666673657420776173207265717565737465642E00C046C0301900201C
:206650002DE9F04F09AF97F80890BE8883469A4688460846ADF11C0D3F88059206F0B6F822
:206670004D4903464D8888880024ABB15B1E0ED020460090019040F29F11029003220390BC
:2066900022A304901DA002F051FF0A2032E035A24FF4CD71054602E034A240F28F11009297
:2066B000CDF804B015A002971FA3CDF80C900122049402F03BFFBD420DDBED1BB542D4BF80
:2066D000AAB2321CAAF80020D8F80C100598C91903F09EFA0DE020460090019040F2A511EC
:2066F00002900322039023A3049004A002F01EFF0724204607B0BDE8F08FC0466C65645F2D
:20671000736572766963652E6300C04641747472696275746520776173206E6F7420666F5C
:20673000756E642E00C046C052656164417474724342203A20257320636F6E6E48616E6417
:206750006C653A202564206F66667365743A202564206D6574686F643A2030782530327849
:2067700000C046C04C45443100C046C04C45443000C046C0416E20696E76616C6964206F67
:20679000666673657420776173207265717565737465642E00C046C0A01A00202DE9FF4150
